:100000000C949C050C94E3050C94E3050C94E30517
:100010000C94E3050C94E3050C94E3050C94E305C0
:100020000C94E3050C94E3050C94AC0F0C94B214FF
:100030000C94E3050C94E3050C94E3050C94E305A0
:100040000C94E3050C948E100C94E3050C94E305DA
:100050000C94E3050C94AC100C94E3050C94E305AC
:100060000C94E3050C94E3050C94E3050C94E30570
:100070000C94E3050C94E3050C94E3050C94E30560
:100080000C94E3050C94E3050C94E3050C94E30550
:100090000C94E3050C94E3050C94E3050C94E30540
:1000A0000C94E3050C94E3050C94E30505010902A7
:1000B000A10185020901A1000509190129081500FE
:1000C0002501950875018102050109300931158165
:1000D000257F95027508810609381581257F9501D0
:1000E00075088106050C0A38021581257F95017572
:1000F000088106C0C005010980A101850319012AF4
:10010000B700150126B700950175108100C0050CD8
:100110000901A101850419012AA002150126A002E6
:10012000950175108100C00660FF0961A101096297
:10013000150026FF00952075088102096315002629
:10014000FF00952075089102C005010906A101056F
:100150000719E029E7150025019508750181029529
:1001600001750881010507190029FF150026FF0008
:100170009506750881000508190129059505750181
:100180009102950175039101C029001E001F0020F6
:100190000021002200230024002500260027002D36
:1001A000002E0035002A002B00000014001A000861
:1001B00000150017001C0018000C00120013002F7F
:1001C000003000000039000000040016000700099C
:1001D000000A000B000D000E000F00330034003148
:1001E0000028000000E1001D001B000600190005AA
:1001F0000011001000360037003800E50052000101
:1002000051E000E2000000E300000000002C0000CC
:10021000000000000000000000500051004F0001ED
:10022000003A003B003C003D003E003F00400041E2
:100230000042004300010001000100010001000034
:1002400000010001000100010001000100010001A6
:100250000001000100010001000000010000000198
:100260000001000100010001000100010001000186
:100270000001000100010001000000010001000177
:100280000001000100010001000100010001000166
:100290000001000100010001000100000001000058
:1002A000000000010000000000000000000000ACA1
:1002B00000AD00AB000100010001000100010001E0
:1002C0000001000100010001000100010001000126
:1002D0000001000100000001000100010001000117
:1002E0000001000100010001000100010001000007
:1002F00000010000000100010001000100010001F7
:1003000000010001000100010001000100010000E6
:1003100000010001000100010001000100010001D5
:1003200000010001000100010001000100010001C5
:1003300000000001000000000001000000000000BB
:1003400000000000000100010001000100010001A7
:100350000001000100010001000100010001000195
:100360000001000100010001000100000001000186
:100370000001000100010001000100010001000175
:100380000001000100000001000000010001000167
:100390000001000100010001000100010001000155
:1003A0000001000100000001000100010001000146
:1003B0000001000100010001000100010001000135
:1003C0000001000100010000000100000000000128
:1003D000000000000000000000000001000100011A
:1003E0000000AF000000000000000000000000005E
:1003F00000000000000000000000000000000000FD
:10040000000000000000007E0F00D4FFFFFFC700C7
:1004100000007800000000000000002A2B280000E7
:1004200000000000000000000000000000002900A3
:100430000000002C1E3420212224342627252E36AD
:100440002D3738271E1F202122232425263333361B
:100450002E37381F0405060708090A0B0C0D0E0F6E
:10046000101112131415161718191A1B1C1D2F31F1
:1004700030232D350405060708090A0B0C0D0E0F55
:10048000101112131415161718191A1B1C1D2F31D1
:1004900030354C00000000000000000000000102A8
:1004A00004060A0F17202C3A4A5D71879DB3C7DAFC
:1004B000E9F5FCFFFCF5E9DAC7B39D87715D4A3ABF
:1004C0002C20170F0A0604020100000000000000A3
:1004D00000000000DA0281FFD9F1DB20A4A62EAFD4
:1004E00000A0C000A1C800AED580A81FD300408DD9
:1004F00014200020204E4F4E4500322046554E43DA
:1005000000312042415345005D202020007B7C20AB
:10051000202020007D7E4C4F434B002020205B009C
:10052000808182838485868788898A8B8C8D8E8F53
:100530009091929394A0A1A2A3A4A5A6A7A8A9AACA
:10054000ABACADAEAFB0B1B2B3B4C0C1C2C3C4C541
:10055000C6C7C8C9CACBCCCDCECFD0D1D2D3D40098
:10056000AE09025B00030100A0FA090400000103C8
:10057000010100092111010001224000070581034A
:1005800008000A090401000203000000092111010A
:100590000001222200070582032000010705030352
:1005A00020000109040200010300000009211101DB
:1005B0000001227B000705840320000A12011001BC
:1005C00000000008EDFE606001000102000114035C
:1005D00050004800450052004F004D004F004E00B3
:1005E000450000000E034C00550041004E00540031
:1005F00059000000040309040000000000003E5BF5
:100600004F5B3E003E6B4F6B3E001C3E7C3E1C0031
:10061000183C7E3C18001C577D571C001C5E7F5EFA
:100620001C0000183C180000FFE7C3E7FF0000189B
:1006300024180000FFE7DBE7FF0030483A060E0011
:10064000262979292600407F05050700407F0525DA
:100650003F005A3C663C5A007F3E1C1C0800081CA8
:100660001C3E7F0014227F2214005F5F005F5F004A
:1006700006097F017F00006689956A0060606060FE
:10068000600094A2FFA2940008047E0408001020D9
:100690007E20100008082A1C0800081C2A080800F0
:1006A0001E10101010000C1E0C1E0C0030383E38AE
:1006B0003000060E3E0E06000000000000000000A4
:1006C0005E000000000600060000143E143E140008
:1006D000242A7F2A1200261608343200364A562071
:1006E0005000000A06000000003C4200000000002C
:1006F000423C00002A1C3E1C2A0008083E08080054
:1007000000A0600000000808080808000000606001
:1007100000002010080402003C4242423C00004419
:100720007E400000645252524C0022424A4A360037
:100730003824227E20002E4A4A4A32003C4A4A4A45
:1007400032000202621A0600344A4A4A34004C520D
:1007500052523C0000001400000000403400000031
:1007600000081422000014141414140000002214B1
:1007700008000004520A04003E415D594E007C12FC
:1007800012127C007E4A4A4A34003C4242424200F5
:100790007E4242423C007E4A4A4A4A007E0A0A0A97
:1007A0000A003C42425272007E0808087E000000A7
:1007B0007E0000002040423E00007E1008146200CF
:1007C0007E40404040007E0408047E007E04081005
:1007D0007E003C4242423C007E1212120C003C421F
:1007E00052225C007C1212325E004C4A4A4A3200AD
:1007F00002027E0202003E4040403E001E20402099
:100800001E003E4038403E00621408146200060894
:100810007008060062524A464200007E42420000D2
:10082000020408102000000042427E000804020476
:1008300008004040404040000000060A00006054AC
:1008400054547C007E4848483000304848484800AE
:10085000304848487E0038545454580000087C0AF8
:10086000000098A4A4A478007E0808087000000086
:100870007A0000002040403A00007E10284400002A
:1008800000007E4000007C04780478007C040404AE
:100890007800384444443800FC24242418001824E8
:1008A0002424FC007C080404080048545454240008
:1008B00000047E4400003C4040407C001C2040205E
:1008C0001C003C4030403C004428102844005CA000
:1008D000A0A07C004464544C4400FEC1C1C9C5DDE5
:1008E000C5C9C1C1FE00FCFEFEEEF6C6F6EEFEFE78
:1008F000FC003C2623263C000103053F053301385C
:10090000003C0000000000000000000000000000AB
:10091000001C3C783C1C0080E010080000140C1EF9
:100920002C5440404040449A24408080C030080805
:10093000040402020101010101020204040808305A
:10094000C080808080402020202070701C78181883
:10095000181888C040C040C040C040C040C080009F
:1009600000000000000000000000001E003F2121E8
:10097000212D2D213F00F00804C4242424C40408A0
:10098000F000F0F8FC3CDCDCDC3CFCF8F000FEC1E4
:10099000C1C9C5DDC5C9C1C1FE00FCFEFEEEF6C67B
:1009A000F6EEFEFEFC00000000000000000000006B
:1009B0000000000000000000000000000000000037
:1009C0000000000000000000000000000000000027
:1009D00000000000000000070F112101010101C10A
:1009E000213925C505091224292A2A2AFF80000059
:1009F00000F048E8A8E848E8A8E848F000000080CF
:100A0000FF2A2A2A4A8A2A522202020242820242E9
:100A100082020F1D171D97DD575D57DD971D0F00D3
:100A200000000000000000000000000000000000C6
:100A30000000000000000708101311111113100826
:100A40000700070F1F1C1E1E1E1C1F0F07000000A3
:100A50000000000000000000000000000000000096
:100A60000000000000000000000000000000000086
:100A700000000000000000000004021F22242000EB
:100A80000000000000000000000000000000000066
:100A9000000000000000000000000000000000074F
:100AA00005050507000000000000102F10000306D8
:100AB000080F183C6CF7F5F76C3C180F080603009C
:100AC00030293E283000010101010101050701051F
:100AD0000301000000000F18111214180F0000008D
:100AE0000000000000000000000000000000000006
:100AF000020A2A2A2A00000000000000000000006C
:100B000000000000000000000000000000000000E5
:100B100000000000000000000000000000000000D5
:100B200000000000000000000000000000000000C5
:100B3000000000000000000011241FBECFEFDAE02B
:100B4000DEBFCDBF04B603FE27C08091990490910B
:100B50009A04A0919B04B0919C048730904BA740CD
:100B6000B04BD1F41092990410929A0410929B0405
:100B700010929C0414BE84B7877F84BF0FB6F8948C
:100B8000A895809160008861809360001092600059
:100B90000FBEE0E0F8E3099511E0A0E0B1E0E2EE7D
:100BA000F1E502C005900D92A038B107D9F724E015
:100BB000A0E8B1E001C01D92A939B207E1F70E9497
:100BC0006E200C9490280C940000E8EDF0E08081F9
:100BD0008E7F80831092E2001092DA001092E10082
:100BE000A0EEB0E08C9181608C9380818F778083C0
:100BF00019BCA7EDB0E08C918E7F8C9380818F7EA5
:100C000080831092700208952091E4003091E500F5
:100C100095E6A9012091EC00822F817020FF06C08B
:100C20008091E80080FF06C080E008952091E800F0
:100C300022FD1AC080917D02882389F0853089F0D9
:100C40008091EB0085FD0FC02091E4003091E5001C
:100C500042175307F9F29150E1F684E0089582E0DB
:100C6000089583E0089581E00895EF92FF920F9335
:100C70001F93CF937C018B010E940406C82F811122
:100C800017C08091E80085FD0BC08091E8008E7749
:100C90008093E8000E940406882399F3C82F08C0B7
:100CA000F70181917F018093F1000150110949F70B
:100CB0008C2FCF911F910F91FF90EF90089580910D
:100CC0007F0287FF13C08091E80082FF06C08091F9
:100CD000E8008B778093E80004C080917D02811149
:100CE000F2CF089580917D028823D9F38091E800A6
:100CF00080FFF8CF8091E8008E77ECCF982F90930B
:100D0000E900242F762F50E0891731F07091EC0024
:100D10002091ED005091F00021FD07C09F5F9730BA
:100D200071F78093E90081E008953091EB003E7FF8
:100D30003093EB003091ED003D7F3093ED0030912A
:100D4000EB0031603093EB007093EC002093ED00EA
:100D50005093F0002091EE0027FDE0CF80E0089551
:100D6000CF92DF92EF92FF920F931F93CF93DF9377
:100D7000C8EDD0E088818F7E8883E7EDF0E0808148
:100D80008160808384E082BF81E0809370028881EB
:100D90008E7F888302EE10E0F80110821092DA0054
:100DA00081EEC82ED12CF601108288818F7788833E
:100DB00088818068888388818F7D888319BC1092A0
:100DC0007D0210927E0210927C0210927B0290EEC5
:100DD000E92EF12CF70180818B7F808388818160EF
:100DE000888342E060E080E00E947E06F601808118
:100DF0008E7F8083F801808181608083808188601C
:100E00008083F70180818E7F8083888180618883E1
:100E1000DF91CF911F910F91FF90EF90DF90CF90D6
:100E20000895FC01CB01209185023091860226179E
:100E3000370790F0009729F42091E8002E7720934F
:100E4000E80040E0009751F4411108C08091E800AB
:100E500082FF31C080E00895C901F3CF20917D0267
:100E60002223A9F12530A9F12091E80023FD2DC00E
:100E70002091E80022FDEACF2091E80020FFE2CF98
:100E80003091F3002091F200009719F028303105DD
:100E900058F041E02830310509F040E02091E800A9
:100EA0002E772093E800CECF41914093F100019737
:100EB0002F5F3F4FE9CF80917D02882341F085303D
:100EC00041F08091E80083FFC1CF81E0089582E086
:100ED000089583E0089580E0089580917202089556
:100EE0009C014FB7F89480910C0290910D02A09153
:100EF0000E02B0910F024FBF821B930B0895CF9348
:100F0000DF9300D000D0CDB7DEB78FB7F894209133
:100F10000C0230910D0240910E0250910F02298374
:100F20003A834B835C838FBF69817A818B819C81FB
:100F30000F900F900F900F90DF91CF9108959C012B
:100F4000FC0132968FEF90E04191461751F08F3FB0
:100F500019F4411101C0892F9F5F9630A9F78F3F87
:100F600009F40895280F311D87FD3A95F901628330
:100F700008958091070281111092070208958091CF
:100F8000060290910502892B90910402892B80938F
:100F9000820190910702992391F0892B809382011D
:100FA00020E084E891E0FC013081019631112F5F4F
:100FB00031E08A389307B9F721110E94B907E0910F
:100FC0001E02F0911F02309731F00280F381E02D74
:100FD00082E891E009940895E82F2FE0929FE00DB8
:100FE00011249E2F9770E695E695E69585E0E89F9B
:100FF000F0011124EF52FE4F50E040E080E02191DB
:1010000030E0092E02C0369527950A94E2F7217048
:101010003327042E01C0220F0A94EAF7822B4F5F78
:101020005F4F4530510559F70895E82F2FE0929F03
:10103000E00D11248E2F877041E001C0440F8A9586
:10104000EAF7E695E695E69585E0E89FF00111243C
:10105000EF52FE4F30E020E070E05191DF01119738
:10106000CB01022E02C0969587950A94E2F7817013
:1010700081958527842385278C932F5F3F4F2530CB
:10108000310559F708958091D00190919F019813EF
:1010900001C008958F5F8770FACF882341F0809553
:1010A000909105028923809305020C94BF0708954F
:1010B000882339F090910502892B809305020C94C6
:1010C000BF070895882341F08095909106028923F7
:1010D000809306020C94BF070895882339F09091FD
:1010E0000602892B809306020C94BF070895209175
:1010F0009501309196012817390771F09093960168
:1011000080939501E0911E02F0911F02309721F02B
:101110000084F185E02D0994089520919301309188
:1011200094012817390771F09093940180939301EB
:10113000E0911E02F0911F02309721F00680F781A6
:10114000E02D09940895E0911E02F0911F0230975E
:1011500021F00190F081E02D099480E00895409104
:101160005602803F59F48091570287FF0DC01092BC
:10117000570241110BC01092510208C0813F81F407
:101180008091570218169CF3442381F080915802F5
:1011900090915902892B09F05AC010924E0208957D
:1011A000823F49F447FFF0CF1092560280915702D8
:1011B0008111ECCFE0CF833F19F41416ACF3E4CFE8
:1011C00090915802893F29F41916F4F610925802AA
:1011D000DBCF8A3F19F497FFD7CFF8CF9091590210
:1011E0008B3F29F497FFD0CF10925902CDCF8C3F7F
:1011F00019F41916CCF3C8CF9CE0980F953090F4F1
:10120000845F990B21E030E0B90102C0660F771FBF
:101210008A95E2F7CB0180959091550289238093BE
:101220005502B2CF8D3F31F4809198018E7F80932B
:101230009801AACF8E3F21F4809198018D7FF7CF3E
:101240008F3F09F0A1CF809198018B7FF0CF089557
:101250008091980180FD16C081FD16C082FD16C0E8
:1012600080914E028823A1F0883280F428E0829F8A
:10127000C001112468E270E00E941728862F672BB6
:1012800039F0089582E0089584E0089588E0089593
:1012900081E008958091980180FD14C081FD14C003
:1012A00082FD16C080915102882381F0843180F440
:1012B00022E3829FC001112464E170E00E9417289C
:1012C000862F08958CE0089589E1089585E00895BA
:1012D00082E30895803F31F40E944A09819580930A
:1012E00057020895813F19F40E944A09F8CF823FBE
:1012F00031F40E944A098195809356020895833FF4
:1013000019F40E944A09F8CF893F29F40E9428095C
:101310008093580208958A3F21F40E9428098195FC
:10132000F7CF8B3F31F40E942809819580935902B1
:1013300008958C3F19F40E942809F8CF9CE0980F7B
:10134000953070F4845F990B21E030E001C0220FEA
:101350008A95EAF780915502822B80935502089571
:101360008D3F31F4809198018160809398010895B8
:101370008E3F21F4809198018260F7CF8F3FB9F7BB
:10138000809198018460F1CFF894E82FE295EF7096
:10139000F0E041A18F7021E030E0B90102C0660F9A
:1013A000771F8A95E2F7CB01962F9095942391A30E
:1013B00092A1892B82A3789408959091120292FFB2
:1013C00006C0282F28712830F9F4877F846093FFA6
:1013D00006C0282F28712831F1F4877E846120917E
:1013E000130220FF06C0382F38713830D9F4877FB8
:1013F000816021FF06C0282F28712831D1F4877E13
:10140000816194FD877E0895282F24712430F9F698
:101410008B7F8860DCCF282F2471243101F78B7EED
:101420008861DDCF382F3171313019F78E7F8860B8
:10143000E0CF282F2171213121F78E7E8861E1CF05
:101440000F931F93462F572FBC01CB01AA27BB2711
:101450000097A105B105E9F1AC01BD0180E1052FBF
:10146000162F272F3327011511052105310519F0F6
:10147000885FB901A8018A019B01F4E036952795A0
:1014800017950795FA95D1F7011511052105310535
:1014900019F08C5FB901A8018A019B01E2E0369541
:1014A000279517950795EA95D1F70115110521059F
:1014B000310519F08E5FB901A801769567955795AA
:1014C0004795452B462B472B09F08F5F1F910F91B6
:1014D000089580E0C4CFCF93DF939C01FB019A95E0
:1014E00081159F4160F5E901CC27D170D901AA2768
:1014F000B270B90166277470A9014427587034FF8F
:1015000010C080E1CD2B09F480E0AB2B09F08062A4
:10151000672B09F08064452B09F08068DF91CF913B
:10152000099481E0CD2B09F480E0AB2B09F08260B7
:10153000672B09F08460452B89F38860EFCFDF913A
:10154000CF910895CF93DF93682F81E06A3019F02F
:101550006D3029F480E0DF91CF910C94310B8091B4
:1015600097049091980426E0FC01A1E9B4E0019071
:101570000D922A95E1F7603E08F45AC026E0FC017E
:1015800011922A95E9F7C0919704D091980446E00A
:1015900050E0BE0181E994E00E9441289E0121595A
:1015A0003240892B41F1C90145E0969587954A95CE
:1015B000E1F741E050E0BA0102C0660F771F8A955B
:1015C000E2F7CB0160918F0270919002862B972BEE
:1015D000B9016B5F7F4FE5E076956795EA95E1F796
:1015E00002C0440F551F6A95E2F7842B952B909308
:1015F000900280938F022A5F3F4F40918E02642FAA
:1016000070E0C9010E940328481B463010F4240FE3
:10161000311D211572E0370710F030E020E02F5621
:101620003D4F3093980420939704DF91CF91089514
:10163000F6E06F9FB001112468507A4F46E050E009
:101640000E943828A0CFCF93DF93EC01FE01849154
:10165000811103C0DF91CF9108950E94A20A2196C3
:10166000F5CFCF93382FE0919704F0919804E1598A
:10167000F24020918E02622F70E0CF010E94032879
:10168000281B822F332361F066E00E94F727C82FC2
:10169000C15010F4CF91089580E20E94A20AF8CFC1
:1016A0009F01280F311D2115324018F080E0F0E035
:1016B000E0E08E0F9F2F911D8F569D4F90939804C1
:1016C00080939704E7CFCF92DF92EF92FF920F9330
:1016D0001F93CF93DF936C017B0164E670E088E792
:1016E0000E940A27EC0197FD12C010E000E0F6010D
:1016F000E00FF11F849164E670E00E946627EC0120
:10170000892B29F40F5F1F4F0E151F0581F70E94CB
:10171000F327CE01DF91CF911F910F91FF90EF90B2
:10172000DF90CF900895CF93DF9300D000D00F9239
:10173000CDB7DEB780914C028D8380914D02882316
:10174000F1F00E947F07DC01CB01805A9541AF4F39
:10175000BF4F8093480290934902A0934A02B093EE
:101760004B028D81811108C062E070E081EE93E050
:101770000E94630B892B61F080914C028D838D81D7
:101780000F900F900F900F900F90DF91CF910895D1
:1017900081E080934C02F0CFCF9384E090E00E94F0
:1017A0004E28C82F82E290E00E944E28982F8C2F5E
:1017B000CF9108950F931F93CF93DF93C42FD0E061
:1017C000CC0FDD1F2EE1629FC00DD11D112436E923
:1017D000839FC00DD11D1124CE0187960E944E28F3
:1017E000082F10E0102F0027CE0188960E944E2867
:1017F0009801282BC901DF91CF911F910F91089576
:10180000462F672F843030F4753020F44F3010F4B9
:101810000C94DA0B90E080E00895CF93DF930E9460
:10182000000CEC01803E910509F46EC060F5813337
:10183000910509F4B1C088F48932910509F4A5C075
:101840008A9709F4B0C0C130D10551F1CE01049797
:10185000813A910508F064C023C08933910509F4E9
:101860004CC08238910509F448C08533910509F4CC
:1018700085C0883A910508F09DC0853A910518F316
:10188000A497D0640DC0843E910509F45CC060F457
:10189000823E910509F447C0833E910509F448C092
:1018A000CE01DF91CF910895863E910509F456C08F
:1018B000873E910509F457C0811522E5920708F08B
:1018C000ACC0811531E5930708F0FCC0883E910556
:1018D00038F3811540E5940708F083C0C11580E412
:1018E000D80708F0ECC0CF3FD10511F008F072C066
:1018F000C03FD105A8F0D065D3CF8091120283708C
:1019000079F2C0EED0E0CCCF8091120280FD07C109
:101910009091130290FFC4CFC3EED0E084FFC0CFFC
:10192000D0E0C0E0BDCF8091120282FDF5CFB8CFEC
:101930008091120282FDF6C09091130290FDE1CFDA
:1019400084FFAECFEDCF8091130281FFA9CF8091AC
:101950001202C7EED0E084FDE3CFA2CF8091120245
:1019600083FDF7CF9DCF8091120283FDDEC0909161
:10197000130291FFE5CFC4EED0E092CF8091120226
:1019800085FF8ECFC9E2D0E08BCF8091120285FF18
:1019900087CFC5E3D0E084CF8091120286FF80CF4D
:1019A000CAE2D0E07DCF8091120286FF79CFC1E3F9
:1019B000D0E076CF885A9109479708F0B1CFC85A3E
:1019C000D0E0CC0FDD1FC95EDE4F0990D881C02D5D
:1019D000D46466CFCE019A9581159F4108F460CFFB
:1019E0009FCFF4E096958795FA95E1F783702C2FB9
:1019F00026952695237040E2249F90011124382BD0
:101A00008C2F8370C1E0D0E002C0CC0FDD1F8A951F
:101A1000E2F7C22BD32BDC6843CFC11586E5D8078C
:101A200030F5C11595E5D90708F060C0C11524E56A
:101A3000D207C0F49C2F969596959E01237033276C
:101A4000C115D34508F043C0C1E0D0E002C0CC0FBF
:101A5000DD1F2A95E2F720E2929FC0011124C82BD6
:101A6000D92BD9CFDC2FCC27C46FD06A19CFC115A1
:101A70003AE5D30788F4C11549E5D40708F041C019
:101A8000CE0198558F3F910511F008F049CFDC2F1A
:101A9000CC27C06FD06A04CFCE01905681159042FA
:101AA00008F03ECF8D2F8F710E94DD0990E0982FB6
:101AB000882788279F719C012C2BE90120C0DF70AB
:101AC000D06AEECED82FCC27C16FD06AE9CEC1E064
:101AD000D0E002C0CC0FDD1F2A95E2F730E2939FE1
:101AE000C0011124C82BD92BDA68DACE8C2F0E94C2
:101AF000DD09C82FD0E0DC2FCC27CC27DF71D062E6
:101B0000CFCE8C2F8F700E94DD0934E0D695C7951B
:101B10003A95E1F7CF70DC2FC82FD069C1CEC9E369
:101B2000D0E0BECEC2EED0E0BBCEC6EED0E0B8CEA6
:101B3000BF92CF92DF92EF92FF920F931F93CF93BA
:101B4000DF938C01C0908A02D0908B02E0908C02CF
:101B5000F0908D028091080290910902A0910A02F2
:101B6000B0910B02C82AD92AEA2AFB2ACFE1D0E099
:101B7000BC2ED701C6010C2E04C0B695A79597952B
:101B800087950A94D2F780FD0EC0219788F7B12C73
:101B90008B2DDF91CF911F910F91FF90EF90DF90F0
:101BA000CF90BF900895B8018C2F0E940D0C019723
:101BB00061F3EECFCF93DF93D82FC92F0E94980DFA
:101BC0006D2F7C2FDF91CF910C940D0C0E94DA0DBC
:101BD000282F892F8F70392F32953F70903C80F4D9
:101BE0003A30B0F4343020F4323090F480E008958C
:101BF0003630E1F781E0283E88F0213FB9F70EC08A
:101C00003C3011F03F3091F7869586958695089582
:101C100081E0203F39F018F4283E40F70895243F32
:101C200029F7FCCF08956F927F928F929F92AF9287
:101C3000BF92CF92DF92EF92FF920F931F93CF93B9
:101C4000DF93D12CC12C3BEDA32EB12CE501C6595D
:101C5000D10936011BC0F70185909490692DC80108
:101C60000E945C28682DC80101960E945C2822E031
:101C7000E20EF11C0E5F1F4FC017D10761F73FE066
:101C8000630E711C6E96CA15DB0559F0C301880FEF
:101C9000991F9C0127573E4F79018E010E51110962
:101CA000DACFCE018A569F4F5C019BE4C90ED11C4E
:101CB000CD39D24059F6DF91CF911F910F91FF900E
:101CC000EF90DF90CF90BF90AF909F908F907F90DC
:101CD0006F900895CF93C0911302C2FB992790F99A
:101CE000981781F080FBC2F9C09313026091120231
:101CF00084E090E00E945C286C2F82E290E0CF911B
:101D00000C945C28CF910895CF93DF93CFE7D2E076
:101D100060E0CE010E945C282196C11584E0D807BE
:101D2000B9F7DF91CF910895CF93DF9300D00F9251
:101D3000CDB7DEB790917D02943011F589836A8327
:101D40007B839093E9008FEF9091E800815095FD9F
:101D500006C095ED9A95F1F700008111F5CF8091BD
:101D6000E80085FF0DC050E040E063E070E0CE0188
:101D700001960E9435068091E8008E778093E800F6
:101D80000F900F900F90DF91CF910895BC0184E0E8
:101D90000C94940EBC0183E00C94940E24E02093E8
:101DA000E9002FEF3091E800215035FD06C035EDF8
:101DB0003A95F1F700002111F5CF2091E80025FFB9
:101DC0000BC050E040E066E070E00E943506809174
:101DD000E8008E778093E8000895CF93DF93D82FA3
:101DE000C92F81E08093E9008FEF9091E800815046
:101DF00095FD06C095ED9A95F1F700008111F5CF9C
:101E00008091E80085FF16C050E040E068E070E097
:101E10008D2F9C2F0E9435068091E8008E7780934D
:101E2000E80088E0ED2FFC2FA3E7B2E001900D92CF
:101E30008A95E1F7DF91CF91089581E08093E000EA
:101E400080E28093D8001092C9008FE19EE4019750
:101E5000F1F700C0000087E090EBDC01809399046B
:101E600090939A04A0939B04B0939C0488E19CE017
:101E70000FB6F894A895809360000FBE9093600011
:101E8000FFCF6AEE7EEF90E080E00E947A2860E06B
:101E900082E090E00E945C2860E083E090E00E9495
:101EA0005C28109208021092090210920A02109205
:101EB0000B0260E084E090E00E945C2860E082E237
:101EC00090E00E945C2860E085E090E00E945C2841
:101ED00060E086E090E00E945C286FEF87E090E091
:101EE0000E945C2840E050E0BA0188E090E00E9447
:101EF0006E2860E08DE090E00E945C2840E050E0B9
:101F0000BA0188E190E00E946E2860E087E190E0ED
:101F10000E945C2840E050E0BA018CE190E00E9411
:101F20006E2870E060E080E290E00E947A2840E055
:101F300050E0BA0188E190E00E946E2840E050E055
:101F4000BA018FE090E00E946E2840E050E0BA01B4
:101F500083E190E00C946E281F920F920FB60F92BF
:101F600011242F933F934F935F936F937F938F939E
:101F70009F93AF93BF93EF93FF938091E10082FF14
:101F800009C08091E20082FF05C08091E1008B7F53
:101F90008093E1008091DA0080FF24C08091D80016
:101FA00080FF20C08091DA008E7F8093DA008091DC
:101FB000D90080FFA5C080E189BD82E189BD09B457
:101FC00000FEFDCF81E080937D028091700281113F
:101FD00009C00E94E5050E94B0068091E20084607D
:101FE0008093E2008091E10080FF1CC08091E200BC
:101FF00080FF18C08091E2008E7F8093E200809184
:10200000E20080618093E2008091D800806280933A
:10201000D80019BC85E080937D0280916F008260BA
:1020200080936F008091E10084FF2EC08091E200D8
:1020300084FF2AC080E189BD82E189BD09B400FE28
:10204000FDCF8091D8008F7D8093D8008091E100F2
:102050008F7E8093E1008091E2008F7E8093E2008A
:102060008091E20081608093E20080917E0288236B
:1020700009F44CC084E080937D0280916F008D7FD5
:1020800080936F000E94A3088091E10083FF27C026
:102090008091E20083FF23C08091E100877F8093DD
:1020A000E10082E080937D0210927E028091E10047
:1020B0008E7F8093E1008091E2008E7F8093E2002A
:1020C0008091E20080618093E20042E060E080E085
:1020D0000E947E068091F00088608093F000FF915E
:1020E000EF91BF91AF919F918F917F916F915F9190
:1020F0004F913F912F910F900FBE0F901F90189509
:1021000019BC10927D02109270026CCF8091E30096
:1021100087FD02C081E0AFCF83E0ADCF8F938FB753
:102120008F939F93EF93FF938091100290911102F0
:1021300001969093110280931002E0911102E695AE
:10214000E695F0E0ED56FB4FE491FF91EF919F9102
:102150008F918FBF8F91189578941F921FB61F9201
:1021600011248F939F93AF93BF9380910C02909112
:102170000D02A0910E02B0910F020196A11DB11D9A
:1021800080930C0290930D02A0930E02B0930F0265
:10219000BF91AF919F918F911F901FBE1F90189577
:1021A0002FB7F89480910C0290910D02A0910E022D
:1021B000B0910F022FBF08950E94D01020915602B7
:1021C00030915702232B21F08093520290935302B7
:1021D0002091580230915902232B21F080934F0215
:1021E00090935002E0911E02F0911F02309749F047
:1021F00082E0809354020480F581E02D84E592E032
:102200000994089590E080E00E948D0890E080E0BD
:102210000E94770810920502109204020E94BF07E4
:1022200086E0E4E5F2E0DF011D928A95E9F710927D
:10223000510210924E02109298010C94DC1060939F
:102240008A0270938B0280938C0290938D020C947F
:102250000211CF93DF9300D000D0CDB7DEB78091CD
:102260008A0290918B02A0918C02B0918D02AC01F8
:10227000BD0146705527662777279C0146305105DA
:102280006105710591F4AD01286029833A834B8380
:102290005C8369817A818B819C810F900F900F9074
:1022A0000F90DF91CF910C941F11AD01277FEDCFDF
:1022B0000F931F93CF93DF9300D000D0CDB7DEB73D
:1022C00041E050E060E070E004C0440F551F661F1D
:1022D000771F8A95D2F740955095609570958091BB
:1022E0008A0290918B02A0918C02B0918D028A019A
:1022F0009B01082319232A233B2309831A832B8359
:102300003C83C901B8010F900F900F900F90DF919F
:10231000CF911F910F910C941F1190910302809502
:10232000892380930302282F277039F4282F082E41
:10233000000C330B9217130621F49091130292FFB5
:1023400007C08595859585950E94581110920302C6
:1023500008950F931F93CF93DF9300D000D0CDB794
:10236000DEB741E050E060E070E004C0440F551F6C
:10237000661F771F8A95D2F780918A0290918B020F
:10238000A0918C02B0918D028A019B01082B192B20
:102390002A2B3B2B09831A832B833C83C901B80169
:1023A0000F900F900F900F90DF91CF911F910F9191
:1023B0000C941F11609308027093090280930A0223
:1023C00090930B020C94021110920602E4E8F1E0E3
:1023D00086E0DF011D928A95E9F70C9402111F93A4
:1023E000CF93DF93CDB7DEB7AA970FB6F894DEBFD1
:1023F0000FBECDBF8FE792E0FC0101962091F10066
:10240000208322E087389207B9F7809180028930D3
:1024100009F456C0C8F4823009F4B2C0833009F41C
:1024200081C0813071F18091E80083FF35C18091D6
:102430007F02909180029A3008F02EC1E92FF0E0DF
:10244000EE56F74D0C942B288A3009F488C08B3057
:1024500051F780917F02813231F780918302909110
:102460008402892B01F78091E800877F8093E80040
:102470000E945F0680918102809312010E94E41104
:10248000D2CF80917F02813A71F68091E800877FF8
:102490008093E8008091830290918402892B61F4FB
:1024A00068E083E792E070E00E9411078091E80005
:1024B0008B778093E800B7CF60E090E080E0F3CFC7
:1024C00080917F02813209F0AECF8091830290919A
:1024D00084028D7F892B09F0A6CF8091E800877F49
:1024E0008093E8008091E80082FF17C09091F3008C
:1024F0008091F200029729F48091F1008B7F813066
:1025000021F48091F100809372028091E8008B7732
:102510008093E8000E945F0686CF80917D02811142
:10252000E1CF81CF80917F02813A09F07CCF809109
:10253000830290918402892B09F075CF8091E80085
:10254000877F8093E8008091E80080FFFCCF809136
:1025500012018093F1008091E8008E77D9CF8091AD
:102560007F02813209F05FCF8091E800877F8093FE
:10257000E8000E945F06809182028093710253CF2F
:1025800080917F02813A09F04ECF8091E800877FE9
:102590008093E8008091E80080FFFCCF8091710279
:1025A000D8CF803899F0823809F076C080918302C4
:1025B0008F70873008F070C08093E9008091EB0045
:1025C00085FB882780F91092E90006C080917B0284
:1025D00090917C02911182609091E800977F909396
:1025E000E8008093F1001092F1008091E8008E776E
:1025F000B4C1882309F4A1C1823009F04DC0809193
:1026000081028111A5C1809183028F702FEF280F65
:10261000263008F041C08093E9002091EB0020FFB4
:1026200097C1933031F48091EB0080628093EB008E
:102630008FC19091EB0090619093EB0021E030E02E
:1026400001C0220F8A95EAF72093EA001092EA006F
:102650008091EB008860EACF81111EC01091810249
:102660001F778091E3008078812B8093E300809135
:10267000E800877F8093E8000E945F068091E80071
:1026800080FFFCCF8091E30080688093E30082E0CC
:10269000111183E080937D028091E80083FF0AC0DE
:1026A0008091E800877F8093E8008091EB00806252
:1026B0008093EB00AA960FB6F894DEBF0FBECDBF95
:1026C000DF91CF911F9108958058823028F7409173
:1026D0008102509182024C3D83E05807A1F583E0CE
:1026E0008A838AE289834FB7F894DE01139620E04B
:1026F0003EE051E2E32FF0E050935700E49120FFD9
:1027000003C0E295EF703F5FEF708E2F90E0EA30EC
:10271000C0F0C7968D939D932F5F243159F74FBF1B
:102720008091E800877F8093E8006AE270E0CE0144
:1027300001960E9411078091E8008B778093E80052
:10274000ABCFC096E7CF8091830290918402252F72
:1027500033272330310509F44AC078F5213031059B
:1027600009F479C08BE590E0E1E6F5E0223031052F
:1027700009F092CF2091E800277F2093E800209174
:102780008502309186028217930708F49C0140E08D
:102790002115310509F064C0411162C08091E80043
:1027A00082FDC9CF80917D02882329F2853019F2FC
:1027B0008091E80083FFF2CFBECF2132310509F4CA
:1027C0003BC02232310509F067CF8330910508F014
:1027D00063CFFC01EE0FFF1FEC58FE4F0190F0811C
:1027E000E02D8F589E4FDC018C9190E011C0CA0102
:1027F0009927413089F082309105B1F0892B09F099
:102800004BCFE4EFF5E0E4918E2F90E0E4EFF5E0BC
:10281000009709F441CFAECFE4EEF5E0E4918E2FBE
:1028200090E0E4EEF5E0F4CFEEECF5E0E4918E2FED
:1028300090E0EEECF5E0ECCF8330910508F02CCF82
:10284000880F991FFC01E658FE4F0190F081E02DA2
:1028500089E090E08FCF82E190E0ECEBF5E08ACF69
:1028600080917D02882309F466CF853009F463CF17
:102870008091E80083FD5FCF8091E80082FD8ECFDC
:102880008091E80080FF84CF9091F3008091F20066
:102890002115310519F08830910550F041E0089775
:1028A00009F040E08091E8008E778093E80070CFD7
:1028B00044914093F1003196215031090196E8CFBF
:1028C000803809F0E9CE8091E800877F8093E800A6
:1028D00080917E028093F10088CE8111DDCE10912F
:1028E0008102123008F0D8CE8091E800877F809373
:1028F000E80010937E020E945F06112311F084E02D
:1029000005C08091E30087FDFACF81E080937D02CE
:1029100042E061EC81E00E947E0642E261EC84E0EC
:102920000E947E0642E261EC82E00E947E0642E264
:1029300060EC83E00E947E06AFCE80918102813000
:1029400009F0AACE81E0933009F080E080937C0208
:102950001092E9008091E800877F8093E8000E9450
:102960005F069ACE1F920F920FB60F9211242F93EB
:102970003F934F935F936F937F938F939F93AF9307
:10298000BF93CF93DF93EF93FF93D091E900DF7074
:102990008091EC00C82FC17080FDC0E81092E90062
:1029A0008091F000877F8093F00078940E94EF116F
:1029B0001092E9008091F00088608093F000CD2BA8
:1029C000CF70C093E900FF91EF91DF91CF91BF915C
:1029D000AF919F918F917F916F915F914F913F91B7
:1029E0002F910F900FBE0F901F9018958823F1F133
:1029F0009CEF980F913A78F4E4E8F1E02AE831E0AE
:102A00009191891303C0DF0111971C922E173F0784
:102A1000B9F70C94BF0790E2980F983088F487704C
:102A200021E030E0A90102C0440F551F8A95E2F76A
:102A3000CA01809590910602892380930602E9CF0E
:102A40009BE5980F933020F490E080E00C948D0883
:102A500098E5980F973120F490E080E00C94770887
:102A6000803F20F00E94AF080C94DC100895CF93B3
:102A7000C82F882309F455C08CEF8C0F813AF8F4E5
:102A8000E4E8F1E0DF018D91C81761F021E0AA3898
:102A9000B207C9F76C2F82E891E00E949F07CF919F
:102AA0000C94BF078191C81303C0DF0111971C92DA
:102AB00031E0EA38F307B1F70E94BF07EBCF80E2BD
:102AC0008C0F883068F4C77021E030E001C0220F1D
:102AD000CA95EAF780910602822B80930602DFCF27
:102AE0008BE58C0F833038F42C2F2452330BC90123
:102AF000CF910C948D08E8E5EC0FE73150F4F0E04D
:102B0000EE0FFF1FE95EFE4F80819181CF910C9403
:102B10007708C03F30F08C2F0E946A09CF910C9447
:102B2000DC10CF9108950F931F93CF93C82F10E01F
:102B300000E0893311F400E510E08C2F0E94371576
:102B40000115110531F48C2FCF911F910F910C9429
:102B5000F6148FE99FE00197F1F700C000000150E3
:102B60001109EECFFF920F931F93CF93DF93C62FE0
:102B7000D42F122FFC0182818823A9F0609389024F
:102B80000E94D0109093880280938702C77081E0E2
:102B900001C0880FCA95EAF7DF91CF911F910F917D
:102BA000FF900C946D0880918902681334C0809165
:102BB0008702909188020E947007883C910558F521
:102BC00000E20D0FCD17A9F0C770FF24F3948F2DED
:102BD00001C0880FCA95EAF70E946208083048F4DD
:102BE0008D2F877001C0FF0C8A95EAF78F2D0E9408
:102BF0006D08812F0E9493150830A0F4D77081E0F2
:102C000001C0880FDA95EAF7DF91CF911F910F91FC
:102C1000FF900C946208C77081E001C0880FCA95CC
:102C2000EAF7F2CFDF91CF911F910F91FF900895B6
:102C30000F931F93CF93DF93EC018C01005E11097A
:102C40000830110520F068E578E0892B11F46DE675
:102C500078E0CE010E946B0A8C2F0E9437158C2FD2
:102C60000E94F6140830110520F06DE478E02097FA
:102C700011F462E678E0CE01DF91CF911F910F91C0
:102C80000C946B0A3F924F925F926F927F928F9259
:102C90009F92AF92BF92CF92DF92EF92FF920F93EB
:102CA0001F93CF93DF93CDB7DEB729970FB6F89474
:102CB000DEBF0FBECDBF8C01FC0183819481892BC7
:102CC00031F08081918189238F3F09F037C62996A1
:102CD0000FB6F894DEBF0FBECDBFDF91CF911F912D
:102CE0000F91FF90EF90DF90CF90BF90AF909F90AB
:102CF0008F907F906F905F904F903F9008950E94CB
:102D0000980DF82E682F89819A810E941508698193
:102D10007A818F2D0E94000C7C01F801828188232A
:102D200009F4E0C5970122513F452031310508F0F3
:102D3000C3C58FEF93E00E944E28FEEEEF0E5FE7D3
:102D4000852E52E0952E882389F1809103028770A9
:102D500009F4BDCFF8018281882309F4B8CF82E05D
:102D600029960FB6F894DEBF0FBECDBFDF91CF918D
:102D70001F910F91FF90EF90DF90CF90BF90AF9099
:102D80009F908F907F906F905F904F903F900C94AA
:102D90008D11811424E09206C1F2C4010E944E28D4
:102DA000811101C0EA943FEF831A930AE110F1CF39
:102DB0008091130190911401A0911501B091160119
:102DC00089839A83AB83BC83442443944AE0342EA2
:102DD00074014FEFE41AF40AC4010E944E2889835B
:102DE0001A82882309F4B1CF9FEF980F933000F532
:102DF0008A83498252E0850E911CC7010E944E28A9
:102E00008B83882309F4A1CFCE0101967C01F701C1
:102E100020812223E9F2213009F049C09181828189
:102E2000913041F4F2E0EF0EF11C0E94931509C0BD
:102E30004701EACF923049F422E0E20EF11C0E94F1
:102E400037153FEFE31AF30AE2CF933031F432E063
:102E5000E30EF11C0E94F614F4CF943021F04FEFF2
:102E6000E41AF40AEECF52E0E50EF11C30E020E067
:102E7000B7016F5F7F4FF70141818053990B8A3013
:102E8000910550F021503109E0F28FE99FE0019760
:102E9000F1F700C00000F6CF329EF001339EF00D36
:102EA00011249C012E0F3F1F842F7B01E1CFE22FC5
:102EB000F0E0ED5EFB4F5490822F869586958695C7
:102EC00090E0FC01ED5FFB4F64902770712C022EA7
:102ED00002C0759467940A94E2F7E1E06E227724C9
:102EE000FC01ED50FC4FA490B12C022E02C0B59411
:102EF000A7940A94E2F7F1E0AF22BB24FC01ED5164
:102F0000FC4FC490D12C02C0D594C7942A95E2F707
:102F100021E0C222DD246114710419F081EE0E94C7
:102F20003715A114B10419F086EE0E943715852DCE
:102F30000E949315AB2819F086EE0E94F6146728BC
:102F400019F081EE0E94F614CD2809F47ACF8CE2B4
:102F50006CCF81E00E94A9110E942911F6CE81E078
:102F60000E945811F9CF82E0F5CF82E0F9CF91E4C9
:102F7000909325021092890256E1E5165CE5F5066C
:102F800008F0D0C082E0E8168CE5F80608F498C195
:102F90000E94CC0B909313028093120296E1E916E3
:102FA0009CE5F90608F0EAC0E2E0EE16ECE5FE0664
:102FB00008F0D7C060911202F090130284E090E014
:102FC0000E945C286F2D82E290E00E945C280E94A3
:102FD000E411BBCE92E48111CBCF97C493E481116D
:102FE000C7CF93C494E48111C3CF8FC495E48111FA
:102FF000BFCF8BC496E48111BBCF87C497E4811106
:10300000B7CF83C498E48111B3CF7FC499E4811111
:10301000AFCF7BC49AE48111ABCF77C49BE481111D
:10302000A7CF73C49CE48111A3CF6FC49DE4811129
:103030009FCF6BC49EE481119BCF67C49FE4811135
:1030400097CF63C490E5811193CF5FC491E581115F
:103050008FCF5BC492E581118BCF57C493E581116B
:1030600087CF53C494E5811183CF4FC495E5811177
:103070007FCF4BC496E581117BCF47C497E5811183
:1030800077CF43C498E5811173CF3FC499E581118F
:103090006FCF3BC4882309F438C49AE569CF43EF66
:1030A000E4164CE5F40699F1C0F498EDE9169CE5B8
:1030B000F90649F128E241E0E9EDEE16ECE5FE06FD
:1030C00021F126E241EE61EEF7EDEF16FCE5FF0699
:1030D00009F1882309F419C44DCF25EFE2162CE538
:1030E000F206E1F027E245EE66EE36EFE3163CE548
:1030F000F30681F044EFE4164CE5F40651F727E2BD
:1031000045EE64EE07C027E245EE65EE03C026E219
:1031100041EE60EEC8010E94B21517CE26E241EEE4
:1031200062EEF8CF97012A5F3C452930310508F45B
:103130002FCFF6E1EF16FCE5FF0609F0B7C080914E
:1031400006028A7A91E009F490E09093970169E28F
:10315000811165E382E891E00E949F070E94BF070A
:10316000F4CDF701E350FC45809112028160E33118
:10317000F10590F4E456F74D0C942B28F701EA5F23
:10318000FC45E930F10508F015CFE155F74D0C94F9
:103190002B28809112028260809312020BCF8091C3
:1031A00012028460F9CF809112028860F5CF80917D
:1031B0001302816080931302FDCE8091130282601E
:1031C000F9CF809112028061E7CF80911202806274
:1031D000E3CF809112028064DFCF0E94E4118091DE
:1031E00012028068D9CF809112028C60D5CF809175
:1031F00013028360DFCF809112028E7FCDCF80914A
:1032000012028D7FC9CF809112028B7FC5CF809132
:103210001202877FC1CF809113028E7FCBCF809126
:1032200013028D7FC7CF809112028F7EB5CF809120
:1032300012028F7DB1CF809112028F7BADCF0E94A1
:10324000E411809112028F77A7CF80911202837FC1
:10325000A3CF809113028C7FADCF8091120282FBAD
:10326000992790F921E0922790FB82F990FB83F94E
:1032700093CF80911302982F909591708E7F892B18
:1032800090FB81F997CF0E94E41190911202892F4F
:1032900097FB87F9805880CF61E08EE090E00E9434
:1032A0005C2888CE60E0F9CF85E33AC3882399F0A3
:1032B000FAE5EF16FDE5FF0609F473C008F04CC00F
:1032C000E1143CE5F30609F45CC04EEDE4164CE570
:1032D000F40609F463C0F8018281C080D18088239C
:1032E00009F463C0C6010E94980DF82E682FC6012C
:1032F0000E941508B6018F2D0E940D0C7C01882EAE
:10330000F8019280758072943FE0732280910302ED
:103310008770A1F0B92C992091F08F2D807F803497
:1033200021F080E28E0D883048F082E00E948D11FD
:10333000809103028770BB24B3948111B12C8F2D2F
:1033400082958F70C82ED12C8C3008F06AC0F6019F
:10335000E854F74D0C942B285BE5E5165DE5F50682
:1033600011F18CE5E8168DE5F80609F0B4CF8091EF
:10337000130282FB882780F991E089270E946A0E58
:10338000AACF0E94E4119FEFE4E3FCE09150E040FB
:10339000F040E1F700C000000E941D0F0E94410FA5
:1033A000D4CC81E0EBCF80E0E9CFC6010E94EC07EE
:1033B000F82EA0CFFF2DFF70AF2E8F2D807F19F03C
:1033C000A29420EFA2228E2D9920C9F0AA2069F0A4
:1033D00090E29E0D983010F0E1100BC08091060233
:1033E000A82AA09206020E94BF078E2D0E943715C0
:1033F00018C080910502A82AA0920502F4CF0E946D
:10340000F614AA2071F0A09480E28E0D883010F09E
:1034100081103FC080910602A822A09206020E945D
:10342000BF07E8E0CE1AD108F4E0CF16D10410F4BB
:103430000E94A308BB2009F44ACC8091030280FDBE
:1034400046CCF80112828595859585950E94A91133
:10345000C8010E9442168091030285958595859545
:1034600029960FB6F894DEBF0FBECDBFDF91CF9186
:103470001F910F91FF90EF90DF90CF90BF90AF9092
:103480009F908F907F906F905F904F903F900C94A3
:10349000581180910502A822A0920502C0CF2F2DBD
:1034A0002F70A22E8F2D807F803219F0A29490EF82
:1034B000A9228E2D882071F031E0831681F19920A8
:1034C000D9F1772091F1F801858180FF8ECF8F703F
:1034D00085832BC09920B1F090910702892F8A290A
:1034E000711003C00E946D089CCF41E07412FACFA6
:1034F0002091130222FD95CF981709F492CF809363
:1035000007028FCF711006C00E94B9078A2D0E9452
:10351000620887CF51E0751609F483CFF5CF992063
:1035200031F085E0871508F47CCF8A2DDBCF94E05D
:10353000971508F476CFEACF772041F3893349F421
:10354000FFEF27EE33E0F15020403040E1F700C0BC
:1035500000008E2D0E94F61464CF8F2D86958695DF
:10356000837061F0813009F05CCFC70193709110D6
:1035700002C090E080E00E94770853CFC7019370AB
:10358000911002C090E080E00E948D084ACF8E2DFD
:10359000992029F00E946A090E94DC1042CF0E9403
:1035A000AF08FACF8F2D837009F072C0911039CF18
:1035B0002E2D229526952770220F220F4E2D4F700B
:1035C00050E070E060E0022E04C0440F551F661FFB
:1035D000771F0A94D2F780E090E0DC01E4FE0FC090
:1035E0008FE090E0A0E0B0E004C0880F991FAA1F10
:1035F000BB1F2A95D2F780959095A095B0952F2D59
:10360000269526952370223051F1233009F1409000
:1036100008025090090260900A0270900B0221305B
:1036200099F0842B952BA62BB72B9C01AD0124215F
:103630003521462157212E833F8348875987CA0168
:10364000B9010E94DA11EDCE44295529662977295E
:103650003A014B01682A792A8A2A9B2A12C0842BB4
:10366000952BA62BB72B409108025091090260912F
:103670000A0270910B023C014D01642675268626D4
:1036800097266E827F8288869986C401B301D9CF3E
:103690008695992011F08F2D8170882309F4C1CE71
:1036A0002E2D229526952770220F220F4E2D4F701A
:1036B00050E070E060E0022E04C0440F551F661F0A
:1036C000771F0A94D2F780E090E0DC01E4FE0FC09F
:1036D0008FE090E0A0E0B0E004C0880F991FAA1F1F
:1036E000BB1F2A95D2F780959095A095B0952F2D68
:1036F000269526952370223081F1233009F14090E0
:103700008A0250908B0260908C0270908D02213062
:1037100099F0842B952BA62BB72B9C01AD0124216E
:103720003521462157212E833F8348875987CA0177
:10373000B9010E941F1175CE4429552966297729A0
:103740003A014B01682A792A8A2A9B2A6E827F8253
:1037500088869986C401B301ECCF842B952BA62BC8
:10376000B72B40918A0250918B0260918C0270912C
:103770008D023C014D016426752686269726E6CFEC
:103780002F2D2F70F22E992029F0822F0E94A9113F
:103790008E2DA8CE8E2D0E9462088F2D0E9458116A
:1037A00040CE8E2D32EF831609F450C0381578F0D4
:1037B00040EF841649F151EF851609F43FC0992076
:1037C00009F46AC0711011CE8F2D8F713CC093EF38
:1037D000891609F440C0E4EF8E12F1CF992009F464
:1037E00050C02F2D2F71F22E822F0E94A91180918F
:1037F000130282FD07C038E0F39EC00111248360EC
:10380000809303028F2D1FC0992091F0F4E0F715EB
:1038100008F407CE2F2D2F7181E090E0A0E0B0E0FA
:1038200004C0880F991FAA1FBB1F2A95D2F799CFF2
:1038300085E0882E871408F4F4CDECCF8F2D8F719E
:10384000992009F4ABCF0E94A911EBCD8F2D8F7178
:103850009920C9F3A3CF60E070E0CB01992009F46F
:1038600068CF8F2D8F7141E050E060E070E03A0149
:103870004B0104C0660C771C881C991C8A95D2F7F2
:1038800065CF81E00E948D1141E0471508F0C9CD58
:1038900082E00E948D11C5CD772059F0893309F05F
:1038A00058CE5FEF87EE93E0515080409040E1F7B3
:1038B0004ECE8F2D8F7172CFF0E1EF16FFE5FF0630
:1038C00009F447CB21E1E2162FE5F20609F44BCBD0
:1038D000F7013497EA31F10508F0E1CBEC53F74DED
:1038E0000C942B2830E1E3163FE5F30609F437CBBF
:1038F00041E1E4164FE5F40609F437CB9701245073
:1039000031092A31310508F0CACB26E1E2162CE54F
:10391000F20609F0E0CC809197018111C5CC89E2D3
:10392000E4E8F1E02AE831E09191891303C0DF0176
:1039300011971C922E173F07B9F710CC85E0DE01D6
:10394000119601900D928A95E1F7F8012281898103
:103950009A812111D4C90E94EC07F82ED8C91F936F
:10396000CF93DF9380919E01807FA9F480919B018A
:10397000882389F08091D001D0919F0160919901B5
:1039800070919A01A0919C01B0919D01C62FC7230F
:1039900016E0D81304C0DF91CF911F91089590E0F5
:1039A000109711F0CF3F19F401968770F2CF189F4E
:1039B0009001199F300D1124F901E056FE4F41810D
:1039C0004713F2CF40814613EFCF42814111ECCF34
:1039D000438154814A1B5B0B483C510528F7809179
:1039E0009E018F70806180939E01F901EB55FE4F1F
:1039F00080818F708061808389E991E00E94421606
:103A0000DF91CF911F910C944308AF92BF92CF9258
:103A1000DF92EF92FF920F931F93CF93DF93CDB777
:103A2000DEB72B970FB6F894DEBF0FBECDBF8C016B
:103A300085E0F801DE01179601900D928A95E1F775
:103A4000F80180819181E28029E9A22E21E0B22E45
:103A500060919C0170919D016115710509F421C16E
:103A60003091990140919A01242F23232F3F09F48B
:103A700018C1C380D480F0909B01F601E61BF70BC0
:103A8000FF2009F4DFC020919E01522F507FE83CB7
:103A9000F10508F0BAC0511177C0FE2C491321C0BE
:103AA00038131FC0E1101DC02F70206120939E01AC
:103AB000C5010E94421680919E01F80185838F2DD9
:103AC0002B960FB6F894DEBF0FBECDBFDF91CF911E
:103AD0001F910F91FF90EF90DF90CF90BF90AF902C
:103AE0000895CD2829F0282F29232F3F09F0F7C06A
:103AF00020E0F22FF170DF2EE091D00140919F0184
:103B000056E020FD1CC0EE20D1F280919E01816024
:103B100080939E01F12CD3CF2E2F30E05E9FF001D9
:103B20001124E056FE4F6181961306C06081861312
:103B300003C06281E612E7CFF9013196E770E41322
:103B4000EBCF8F8398878F8198850E94DA0D292F7C
:103B500022952F70903260F0225F2F70223078F41F
:103B60009F7051F0F8019581907F31F4D12C0AC0FB
:103B70009F7011F08823D1F3805E8830B8F3C801BC
:103B80000E944216FD2C9BCF491312C0381310C05F
:103B9000E1100EC0F8012583C8010E94421686E09C
:103BA000F801A9E9B1E001900D928A95E1F787CF7C
:103BB0008F8398878F8198850E94E60D882309F16D
:103BC000EE20F9F080919E01803270F020919901F1
:103BD00030919A013A8329831B82DD82CC828E83C5
:103BE000CE0101960E94421686E0F801A9E9B1E0F3
:103BF00001900D928A95E1F70E94AF1CFF24F39487
:103C00005ECFC8010E944216F9CF51110AC089E95E
:103C100091E00E94421686E0F50111928A95E9F73B
:103C200079CF4913C5CF3813C3CFE110C1CFF80105
:103C30002583C8010E94421686E0F50111928A95FB
:103C4000E9F73DCFE83CF105B8F7FE2CEE20C9F2CC
:103C5000491316C0381314C080919E0180FD9FCF78
:103C6000982F907F09F49BCFF8018583903F09F44A
:103C700093CF982F907F905F8F70892B85838CCF07
:103C80008F8398878F8198850E94E60D8111ACCF34
:103C900080919E01816080939E01C8010E9442161E
:103CA0000ECFEE2009F4ADCF8F8398878F81988552
:103CB0000E94E60DF82E882309F4A3CF86E0F801D0
:103CC000A9E9B1E001900D928A95E1F780919901FF
:103CD00090919A010E94DA0D0E94AF1CF0CE21E073
:103CE0002E2507CF1F93CF93DF93CDB7DEB767970E
:103CF0000FB6F894DEBF0FBECDBF342F4B8B252FF0
:103D00005C8B6D8B7E8B8F8B8E899F89611110925E
:103D100005021A8A3D872E876F87998B888B86E0EC
:103D2000FE013D96DE01179601900D928A95E1F70E
:103D3000CE0107960E94051D882389F016E0809128
:103D4000D00190919F0189134FC067960FB6F894E8
:103D5000DEBF0FBECDBFDF91CF911F91089586E0EA
:103D6000FE013796DE01119601900D928A95E1F7DA
:103D70004A855B854115510509F37F816885862F4A
:103D800087238F3FD9F220919F0130E0C90101962E
:103D900087709927E091D001E817190671F40E9405
:103DA000E41110929F011092D00186E0E9E9F1E060
:103DB000DF011D928A95E9F7C1CF79836A835D831C
:103DC0004C8396E0929FD001939FB00D1124A05692
:103DD000BE4FFE01319601900D929A95E1F78093C6
:103DE0009F010E944308AACF819FC00111248056E1
:103DF0009E4F0E94051D882309F4A7CF8091D00112
:103E000090E00196877099278093D00198CFAF9268
:103E1000BF92CF92DF92EF92FF920F931F93CF93B7
:103E2000DF9300D000D00F92CDB7DEB705E411E0EC
:103E300034E1E32E32E0F32E1D82CC24C394D12C46
:103E4000D8018D918D01F894E82FE295EF70F0E0A4
:103E500021A18F70A60102C0440F551F8A95E2F779
:103E6000CA01922F982B91A392A18095892382A3B6
:103E7000789400C0EAE4F1E030E020E0B12CA12C1D
:103E80004191A42FA295AF70B0E090968C9190E0F4
:103E90004F7002C0959587954A95E2F780FD6BC0FB
:103EA000C601022E02C0880F991F0A94E2F7A82AC1
:103EB000B92A2F5F3F4F2F30310511F7F8013197A5
:103EC00080810E94C40950EA5A95F1F7D7018D917B
:103ED0009C911197A816B90609F450C0AD92BC92F6
:103EE00081E0BD81B82BBD83E2E0EE0EF11CF1E074
:103EF0000A341F0709F0A4CFBB2309F441C081E0B5
:103F000080938C010E94D01090938B0180938A0142
:103F100080918A0190918B010E9470070697A0F111
:103F2000809114029091150290936702809366022B
:103F30008091160290911702909369028093680213
:103F4000809118029091190290936B0280936A02FB
:103F500080911A0290911B0290936D0280936C02E3
:103F600080911C0290911D0290936F0280936E02CB
:103F700010928C0109C090E080E099CF80E0B1CF31
:103F800080918C018111C4CF809191019091920117
:103F90000E94700720918F013091900128173907F6
:103FA00008F06CC086E880937A0080E880937B00FC
:103FB00080910001856080937C0080917A0080640C
:103FC00080937A0080917A0086FDFCCF8091780002
:103FD0002091790090917A009F7790937A00922FA8
:103FE00027FD079623E0959587952A95E1F7182FE9
:103FF00080938E01082E000C990B8054910997FF35
:1040000003C091958195910965E070E00E941728A1
:10401000662309F444C060938D0160918D01062EE2
:10402000000C770B84EF91E00E94172870939001A9
:1040300060938F010E94D010909392018093910120
:1040400010358CF180918A0290918B02A0918C02A4
:10405000B0918D0289839A83AB83BC83BC01CD016F
:104060000E94200A44E064E00E94DA0B0E941816C5
:1040700080918F019091900188974CF18D810F90E4
:104080000F900F900F900F90DF91CF911F910F9194
:10409000FF90EF90DF90CF90BF90AF90089581E0B8
:1040A00080938D01BACF113394F480918A0290915C
:1040B0008B02A0918C02B0918D0289839A83AB838D
:1040C000BC83BC01CD010E94200A45E0CCCF88E230
:1040D00090E09093900180938F01D0CFCDB7DEB761
:1040E000A9970FB6F894DEBF0FBECDBF84B7877F08
:1040F00084BF0FB6F894A895809160008861809382
:104100006000109260000FBE80E890E00FB6F89457
:1041100080936100909361000FBE85B7806885BF72
:1041200085B7806885BF8BE697E090938101809387
:1041300080010E94E5050E94B0068091E200846043
:104140008093E200789480917D028823A1F0109101
:10415000E9001F709091EC00892F817090FD80E83C
:10416000182B1092E9008091E80083FD0E94EF1166
:104170001F701093E90082E084BD93E095BD9AEF33
:1041800097BD80936E0083E30E94C40982E30E947E
:10419000C40981E30E94C40980E30E94C40986EC3B
:1041A0000E94C4090AE411E069E5E62E61E0F62EFA
:1041B000D8018D918D010E94C409E016F106C1F766
:1041C0001092150210921402109267021092660269
:1041D0001092170210921602109269021092680251
:1041E000109219021092180210926B0210926A0239
:1041F00010921B0210921A0210926D0210926C0221
:1042000010921D0210921C0210926F0210926E0208
:1042100090E080E00E9456288A3E9E4F11F00E9456
:10422000410F82E090E00E944E2880935B020E9442
:10423000CC0B90931302809312020E94071FEFE3AE
:10424000FCE93197F1F700C000000E94071F809140
:10425000660280FF17C06FEF83E290E00E945C2847
:104260006FEF84E290E00E945C286FEF85E290E0BF
:104270000E945C286FEF7FEF90E080E00E947A2838
:104280000E941D0F83E090E00E944E28282F30E00E
:1042900050E040E02EA33FA348A759A7CA01B901A7
:1042A0000E94DA1180E48093000183E290E00E9492
:1042B0004E28813209F07CC584E290E00E944E28AD
:1042C000893009F075C585E290E00E944E2887315B
:1042D00009F06EC51092460280E880938E020E941B
:1042E00004276DE070E086EE94E00E94630B892B5A
:1042F00009F043C08091460263E070E081FD7DC11A
:1043000083EE94E00E94630B892BB9F56DE070E0B9
:1043100083ED94E00E94630B892B79F50E947F075F
:104320006EA37FA388A799A7DC01CB01805A954192
:10433000AF4FBF4F8093480290934902A0934A0227
:10434000B0934B02E1E9F2E080E092E0DF019C01F2
:104350001D9221503040E1F7F0939804E0939704C8
:104360008FEF9FEF9093900280938F0281E0809374
:104370004D0280934C021092470227982F9A529830
:104380005A9A83B190E0880F892F881F990B4A9918
:1043900037C120E0822B8093240288E091E0909343
:1043A0001F0280931E0280918100886080938100AB
:1043B000809181008160809381008FB7F89420ED17
:1043C00033E030938900209388008FBF2224239408
:1043D000312C80917D02853009F426C10E94071F8F
:1043E000D82E81110E947F07A6E6B2E0ECE5F2E04C
:1043F00010E000E0602F8D919D912191319128175F
:10440000390709F422C12827392770E0EE24E39404
:10441000F12CA9014E215F21452B09F410C17983AC
:104420006A839C012E213F2191E0232B09F490E027
:104430009B830E94D0108160782F9D838C8349815B
:104440005A816B818D810E94721E000F111FF8012D
:10445000E45AFD4F80819181E826F926F182E082BD
:10446000E0912402EE0FEE0FE093240283B190E07E
:10447000880F892F881F990B4A99FEC020E0822B54
:10448000E82BE0932402EF70F0E0E75AFE4F8081C2
:1044900090912302890F80932302C12C84300CF168
:1044A000809122028F5F8093220280918A029091F4
:1044B0008B02A0918C02B0918D028EA39FA3A8A71E
:1044C000B9A7BC01CD010E94200A41E062E00E9430
:1044D000DA0B80932002909321020E941816CC24BC
:1044E000C394809123028D3F0CF58091220281506C
:1044F0008093220220918A0230918B0240918C029B
:1045000050918D022EA33FA348A759A7CA01B90114
:104510000E94200A41E061E00E94DA0B80932002B1
:10452000909321020E941816CC24C39480912302F8
:10453000082E000C990B64E070E00E94172880930D
:104540002302C1100E947F0780914D02882309F445
:104550002DC141E952E0509398044093970480E2C2
:1045600095E00E94230B0E94A308182F80918A02D5
:1045700090918B02A0918C02B0918D028EA39FA38B
:10458000A8A7B9A7BC01CD010E94200A8230B8F4C7
:104590008DE095E011FF02C084E195E00E94230BBD
:1045A0008BE195E00E94230B80912502811101C0CF
:1045B0008AE20E94A20A88E095E00E94230B2091E3
:1045C0008A0230918B0240918C0250918D022EA371
:1045D0003FA348A759A7CA01B9010E94200A88230E
:1045E00009F44DC0813009F4E5C183EF94E00E94E5
:1045F000230B81E00E94310B46C080EE94E082CE16
:1046000022E0C8CE80917D02992381F00E94071F8D
:10461000E6E6F2E081919191892B09F0B1C340E780
:1046200052E04E175F07B1F790917C0280917D02B6
:10463000853041F30E94E4110E94A308CFCE7F5F32
:10464000EE0CFF1C7F3009F0E4CE0F5F1F4F0530EA
:10465000110509F0CFCE8FEF89A38AA31BA20E9478
:10466000D0108160782F9DA38CA349A15AA16BA182
:104670008DA10E94721EF4CE22E030E000CF81E0D6
:1046800095E00E94230B80914D02882309F45FC0BE
:1046900020918F02309190022115310509F457C005
:1046A00080914702811153C0082F10E07101082E3C
:1046B00002C0EE0CFF1C0A94E2F7A9014E215F2113
:1046C000452B09F47AC19091460290FD78C18295FC
:1046D000880F80768093030198013695279536954B
:1046E000279520930601815E8093040110920701B3
:1046F00024E630E047E050E061E071E088E70E94A6
:104700009527892B21F5A80175E0440F551F7A954F
:10471000E1F78091460280FD60C14F565D4F04E68F
:1047200010E020E230E060E488E70E94C227892B95
:1047300071F40E94930BE094F09480918F02909119
:104740009002E822F922F0929002E0928F0280918A
:104750004C02882359F10E947F076EA37FA388A78C
:1047600099A78091480290914902A0914A02B09184
:104770004B022EA13FA148A559A5281B390B4A0B76
:104780005B0BDA01C9018F3F9F4FAF4FBF4770F4FA
:1047900080914D02882351F062E070E08FE595E052
:1047A0000E94630B892B11F410924C02D11001C0AE
:1047B000C1100E94930B86E0E4E5F2E0DE01119661
:1047C00001900D928A95E1F7F0905602E090570221
:1047D00000915802109159021092560210925702FD
:1047E00010925802109259028F2D8E2909F448C058
:1047F00080915202909153020E9470079C01809117
:104800005102882309F4FBC223333105C8F18F3FDD
:1048100019F08F5F80935102FF2059F00E944A09DE
:104820009FEF1F140CF491E0899F802D1124809339
:104830005602EE2059F00E944A099FEF1E140CF414
:1048400091E0899F802D1124809357023091560268
:104850003323B1F020915702222391F045EB34032A
:10486000C0011124992309F415C19093560255EB08
:10487000250390011124332309F410C1309357020A
:10488000812F802B09F448C080914F0290915002F3
:104890000E9470079C0180914E02882309F4AAC2ED
:1048A00025363105C8F18F3F19F08F5F80934E0296
:1048B000002359F00E9428099FEF10160CF491E094
:1048C000899F802D112480935802112359F00E9452
:1048D00028099FEF11160CF491E0899F802D112477
:1048E00080935902309158023323B1F0209159023C
:1048F000222391F045EB3403C0011124992309F4DC
:10490000D1C09093580255EB250390011124332315
:1049100009F4CCC03093590280915602909157020D
:10492000892B90915802892B90915902892B11F073
:104930000E94DC10FB82EC820D831E8386E0FE0168
:104940003196A4E5B2E001900D928A95E1F70E94BC
:10495000A30890915A02891721F00E94A30880931E
:104960005A0280917D02843009F033CD83E0809338
:10497000E9008091E80082FF2CCD8091E80090E072
:1049800085FF06C00E940406882309F493C091E0C5
:104990008091E8008B778093E800992309F419CD82
:1049A000E981E150E33108F01FC1F0E0E252F74D38
:1049B0000C942B288AEF94E064CE8F5F75CE880F1D
:1049C000880F880F8093030110920601895F8093FE
:1049D000040183E0809307018BCEE6E2F2E080E2FF
:1049E000DF011D928A95E9F78DE691E009E611E075
:1049F00067E0862EDC01ED91CD01D8016D918D012E
:104A0000640F752F711D6F567D4FF0E0EA5DFD4F0D
:104A100030E020E0682C621A922C022E01C0990C22
:104A20000A94EAF72B01A12CD201BD902D01B920E7
:104A3000A62DAA19A770AEA30A2E000CBB0B7B2CC7
:104A40000EA001C0770C0A94EAF77EA2B195A19559
:104A5000B109A770BB2701C0B694AA95EAF77B28D5
:104A6000B0807B287082A394A8E0AA12DDCF2F5FCC
:104A70003F4F31962830310569F6E1E7F1E0E8175C
:104A8000F90709F0B7CF04E610E020E230E046E293
:104A900052E049CE81E080935602E9CE81E08093D6
:104AA0005702EECE81E0809358022DCF81E08093B3
:104AB000590232CF00E210E0CE0101967C018091D4
:104AC000E80085FD0AC08091E8008B778093E800BC
:104AD0000E940406882399F35ACF8091F100D701F0
:104AE0008D937D010150110951F751CF1A8289E050
:104AF0008B8311C08A81823009F473C1833091F1B4
:104B0000813009F071C00E947F070E9431286B83B9
:104B10007C838D839E8380917D02843009F059CC03
:104B20001091E9001F709091EC00892F817090FD29
:104B300080E8182B82E08093E9008091E80080FFF4
:104B40000DC050E040E060E270E0CE0101960E94AE
:104B500035068091E8008E778093E8001F701093EF
:104B6000E90037CC809166029091670298278927E7
:104B700098279C838B838091680290916902982783
:104B8000892798279E838D8380916A0290916B027A
:104B900098278927982798878F8380916C02909116
:104BA0006D029827892798279A87898780916E02B6
:104BB00090916F029827892798279C878B87ABCF86
:104BC0008A81823089F42B813C814D815E812EA3C4
:104BD0003FA348A759A7CA01B9010E94312886E21C
:104BE00090E00E945C2897CF8FEF898394CF4C810F
:104BF0006B818A810E94DA0B9827892798279E83E8
:104C00008D8389CFED80FE80FE24EF24FE248A81EF
:104C10000B813EE1039F8001112446E9849F000D32
:104C2000111D11248C8190E0880F991F080F191F06
:104C30006F2DC80187960E945C286E2DC80188964A
:104C4000D0CF0E94130E67CF50E15A8364CF81E02A
:104C50008A8381E84DCF0A811B8110270127102705
:104C6000CE0101967C01CC80DC01AC0DB11D6D0143
:104C7000C80181589D4FEC14FD0409F44CCF013854
:104C8000B1E01B0750F40E944E28F70184830F5FA8
:104C90001F4FBFEFEB1AFB0AEBCFD70114961C9204
:104CA000F6CF0A811B81102701271027FE013196BC
:104CB0006F01EC80E00EF12EF11CC80181589D4F70
:104CC000E016F10609F427CF0138F1E01F0728F4B8
:104CD000D60114966C910E945C28BFEFCB1ADB0AB8
:104CE0000F5F1F4FEACF0E94840E15CF84E08A83A6
:104CF00012CF0A811B81102701271027FE01319650
:104D00007F01CC809F012C0D311D6901C801879660
:104D1000CE14DF0409F4FFCE083532E0130758F44F
:104D20000E944E28D70114968C930F5F1F4FFFEF00
:104D3000EF1AFF0AEBCFF7011482F7CF0A811B812C
:104D40001027012710279E012F5F3F4F6901EC803C
:104D5000E00EF12EF11CC80187960E151F0509F40F
:104D6000DACE083532E0130728F4D60114966C9198
:104D70000E945C28BFEFCB1ADB0A0F5F1F4FEBCFFF
:104D8000E0E1E9BDF2E1F9BD09B400FEFDCF80919B
:104D9000D8008F7D8093D8008091E000826080935E
:104DA000E0008091E00081FDFCCF0E94E4113CCC4A
:104DB00060E086E290E00E945C280E94130E0E9450
:104DC000840E61E283E290E00E945C2869E084E264
:104DD00090E00E945C2867E185E290E00E945C28F8
:104DE00079CA86E290E00E944E281B821C821D82B6
:104DF0008E8391CE2D32314008F057CD8DCD2D329E
:104E0000314008F006CD3CCD1092B9008CE0809383
:104E1000B8000895EF92FF920F931F93CF93DF9303
:104E2000182FEB011092BC0084EA8093BC000E9412
:104E3000D0107C018091BC0087FF27C08091B90011
:104E4000887F883029F08091B900887F8031D9F53A
:104E50001093BB0084E88093BC000E94D0108C01AA
:104E60008091BC0087FF24C02091B900287F90E08A
:104E700080E02831B1F081E090E0203411F490E03E
:104E800080E09195819591090CC0CF3FDC0791F2AC
:104E90000E94D0108E199F098C179D0758F28EEF33
:104EA0009FEFDF91CF911F910F91FF90EF900895A9
:104EB000CF3FDC07A9F20E94D010801B910B8C170A
:104EC0009D0770F2ECCF8FEF9FEFEBCF0F931F9307
:104ED000CF93DF93EB018093BB0084E88093BC0009
:104EE0000E94D0108C018091BC0087FF11C02091DE
:104EF000B900287F81E090E0283211F490E080E052
:104F0000919581959109DF91CF911F910F9108950E
:104F1000CF3FDC0741F30E94D010801B910B8C1710
:104F20009D0708F38EEF9FEFEECFCF92DF92EF92C7
:104F3000FF920F931F93CF93DF936B018A01F22EA1
:104F4000E32E622F732F0E940A27AC01E6010C0D9D
:104F50001D1DC017D10711F057FF0DC084E98093C4
:104F6000BC00CA01DF91CF911F910F91FF90EF908C
:104F7000DF90CF9008956F2D7E2D89910E94662736
:104F8000AC01E7CFCF92DF92EF92FF920F931F9386
:104F9000CF93DF93C62F6A017901B8010E940A27D7
:104FA0009C0197FD0DC0B8018C2F0E9466279C01C3
:104FB000E601EC0CFD1CCE15DF0511F037FF0DC02E
:104FC00084E98093BC00C901DF91CF911F910F91BB
:104FD000FF90EF90DF90CF900895B80189910E94E3
:104FE00066279C01E8CF84E98093BC000895991B53
:104FF00079E004C0991F961708F0961B881F7A95D0
:10500000C9F780950895AA1BBB1B51E107C0AA1FD1
:10501000BB1FA617B70710F0A61BB70B881F991F59
:105020005A95A9F780959095BC01CD01089597FBFD
:10503000072E16F4009407D077FD09D00E940328AC
:1050400007FC05D03EF4909581959F4F089570958B
:1050500061957F4F0895EE0FFF1F0590F491E02DAD
:10506000099469279627692778278727782708953D
:10507000FB01DC0102C005900D9241505040D8F771
:105080000895FB01DC0104C08D910190801921F489
:1050900041505040C8F7881B990B0895F999FECFED
:1050A00092BD81BDF89A992780B50895A8E1B0E036
:1050B00042E050E00C948228262FF999FECF92BD51
:1050C00081BDF89A019700B4021639F01FBA20BDCD
:1050D0000FB6F894FA9AF99A0FBE08950396272FFF
:1050E0000E945D280E945C28252F0E945D28242FA5
:1050F0000C945D280196272F0E945D280C945C2853
:10510000DC01CB01FC01F999FECF06C0F2BDE1BD87
:10511000F89A319600B40D9241505040B8F7089576
:10512000F894FFCFD112F9124C13F9124C132C132F
:1051300064134C1360146D14C918CF18D318E118F8
:10514000E518E918ED18F318FB18FF1803190719EB
:10515000131917191B191F19251943192D19D718B8
:10516000DD180B190F19F718291939194C1952198B
:10517000DA19DA194F1A4F1AAD1AC71A111A111A79
:10518000D21AC01BD11BD11BB717EA17EE17F217A3
:10519000F617FA17FE17021806180A180E18121832
:1051A00016181A181E18221826182A182E1832181F
:1051B00036183A183E18421846184A1876257A25A5
:1051C000E025F72502262126F425F425F425F425EB
:1051D000F425242627262B26512673267626792683
:0251E0009E2609
:1051E200400021007F2200036D07ED0ECE0ECA0E95
:1051F200C60E0100000000E200E900EA00B500B6B8
:1052020000B700CD008301CC008A019201940121F4
:1052120002230224022502260227022A02B300B434
:10522200006F00700033323130C6939594969734F4
:1052320035366667F7F6F4F1F000FF010001000071
:10524200FFFF0000010001FF0000081018181008FD
:105252000040227B49012701AC0073058C05AC0597
:00000001FF
